{
  "contractName": "VideoStorage",
  "abi": [
    {
      "inputs": [
        {
          "internalType": "string",
          "name": "hash",
          "type": "string"
        }
      ],
      "name": "storeVideoHash",
      "outputs": [],
      "stateMutability": "nonpayable",
      "type": "function"
    },
    {
      "inputs": [
        {
          "internalType": "string",
          "name": "hash",
          "type": "string"
        }
      ],
      "name": "checkVideoHash",
      "outputs": [
        {
          "internalType": "bool",
          "name": "",
          "type": "bool"
        }
      ],
      "stateMutability": "view",
      "type": "function"
    }
  ],
  "bytecode": "0x608060405234801561001057600080fd5b50610417806100206000396000f3fe608060405234801561001057600080fd5b50600436106100365760003560e01c80638a5374b71461003b578063a543d52c1461006b575b600080fd5b610055600480360381019061005091906101c9565b610087565b60405161006291906102a1565b60405180910390f35b610085600480360381019061008091906101c9565b6100bb565b005b60008082604051610098919061028a565b908152602001604051809103902060009054906101000a900460ff169050919050565b6000816040516100cb919061028a565b908152602001604051809103902060009054906101000a900460ff1615610127576040517f08c379a000000000000000000000000000000000000000000000000000000000815260040161011e906102bc565b60405180910390fd5b6001600082604051610139919061028a565b908152602001604051809103902060006101000a81548160ff02191690831515021790555050565b600061017461016f8461030d565b6102dc565b90508281526020810184848401111561018c57600080fd5b610197848285610370565b509392505050565b600082601f8301126101b057600080fd5b81356101c0848260208601610161565b91505092915050565b6000602082840312156101db57600080fd5b600082013567ffffffffffffffff8111156101f557600080fd5b6102018482850161019f565b91505092915050565b61021381610364565b82525050565b60006102248261033d565b61022e8185610359565b935061023e81856020860161037f565b80840191505092915050565b6000610257601483610348565b91507f4861736820616c7265616479206578697374732e0000000000000000000000006000830152602082019050919050565b60006102968284610219565b915081905092915050565b60006020820190506102b6600083018461020a565b92915050565b600060208201905081810360008301526102d58161024a565b9050919050565b6000604051905081810181811067ffffffffffffffff82111715610303576103026103b2565b5b8060405250919050565b600067ffffffffffffffff821115610328576103276103b2565b5b601f19601f8301169050602081019050919050565b600081519050919050565b600082825260208201905092915050565b600081905092915050565b60008115159050919050565b82818337600083830152505050565b60005b8381101561039d578082015181840152602081019050610382565b838111156103ac576000848401525b50505050565b7f4e487b7100000000000000000000000000000000000000000000000000000000600052604160045260246000fdfea264697066735822122023146e5b21ae3a4fe028809ac5d8773a66dafedf6f6024ed5800702a577e869f64736f6c63430008000033",
  "immutableReferences": {},
  "source": "pragma solidity ^0.8.0;\n\ncontract VideoStorage {\n    mapping(string => bool) private videoHashes;\n\n    function storeVideoHash(string memory hash) public {\n        require(!videoHashes[hash], \"Hash already exists.\");\n        videoHashes[hash] = true;\n    }\n\n    function checkVideoHash(string memory hash) public view returns (bool) {\n        return videoHashes[hash];\n    }\n}",
  "sourcePath": "D:\\videoHash\\contracts\\VideoStorage.sol",
  "compiler": {
    "name": "solc",
    "version": "0.8.0+commit.c7dfd78e.Emscripten.clang"
  },
  "schemaVersion": "3.4.16",
  "updatedAt": "2024-12-11T06:35:12.017Z",
  "devdoc": {
    "kind": "dev",
    "methods": {},
    "version": 1
  },
  "userdoc": {
    "kind": "user",
    "methods": {},
    "version": 1
  }
}